:100000004DC0000068C0000066C0000064C0000071
:1000100062C0000029C200005EC000005CC0000099
:100020005AC0000058C0000056C0000054C0000074
:1000300052C0000050C000004EC000004CC0000084
:100040004AC0000048C0000046C0000044C0000094
:1000500042C0000040C000003EC000003CC00000A4
:100060003AC0000038C0000036C0000034C00000B4
:1000700032C0000030C000002EC000002CC00000C4
:100080002AC0000028C0000026C00000930099008C
:100090009F00A500AB00B100B700BD0011241FBE3A
:1000A000CFEFD0E4DEBFCDBF12E0A0E0B1E0ECE4E2
:1000B000F5E000E00BBF02C007900D92A633B10738
:1000C000D9F725E0A6E3B2E001C01D92AB36B20736
:1000D000E1F72DD239C294CFE9EDF3E021EA34E023
:1000E00008C01192E817F907E1F7FC012817390752
:1000F00019F0CF010A96F5CF08958FEF81B912B8A4
:1001000081E182B995E592B982B98FEC97E00197C8
:10011000F1F700C00000089588309105A0F5FC01BA
:10012000EA5BFF4F08C2FB01EF5CFE4F808182B9A2
:100130000895FB01E65DFE4F808182B90895FB01C1
:10014000ED5DFE4F808182B90895FB01E45EFE4FB4
:10015000808182B90895FB01E25FFE4F808182B900
:100160000895FB01EB5EFE4F808182B90895FB018B
:10017000E95FFE4F808182B90895FB01E050FF4F97
:10018000808182B90895FB01EF5CFE4F808182B9C6
:100190000895FC01EE0FFF1F880F991F880F991F0C
:1001A000880F991FE80FF91FDF01A752BC4F19965E
:1001B0008C9180933602EE51FC4F829180933702EE
:1001C000A8E3B2E087E090E08F3F2FEF920721F0A5
:1001D00022912D930197F8CF08952F923F924F923D
:1001E0005F926F927F928F929F92AF92BF92CF92C7
:1001F000DF92EF92FF920F931F93CF93DF9300D084
:100200001F92CDB7DEB7A12CB12C81E089834424A5
:1002100043940F2EF1E58F2EF02D0F2EF1E19F2E3E
:10022000F02D0F2EF3E12F2EF02D0F2EF5E13F2EA6
:10023000F02D0F2EFBE17F2EF02D512C612CC52CC3
:10024000D62C42B882B892B8C501A3DF998191300B
:1002500041F4E9E1E2B972B892B832B892B81982C1
:1002600005C092B822B892B832B892B880913901DC
:10027000811118C01FC0F80180816A817B8190E0E4
:100280004BDF8A819B8101969B838A83079799F72D
:100290009FEFE91AF90A8091390190E0E816F90612
:1002A0001CF008C0E52CF62CCA82DB8287010A5CB0
:1002B0001D4FE1CF82B892B8E5E8EA95F1F700006A
:1002C000FFEFAF1ABF0A8091380190E00196A8169F
:1002D000B9060CF4B6CF0F900F900F90DF91CF912D
:1002E0001F910F91FF90EF90DF90CF90BF90AF9054
:1002F0009F908F907F906F905F904F903F902F9046
:100300000895A12C0F2EF1EACF2EF4E0DF2EF02D70
:100310000F2EF9ED8F2EF3E09F2EF02D0F2EFAE029
:10032000BF2EF02DE12CFA2C15C0F192E017F10749
:10033000E1F7CB2DDE2D51DF2197E9F7F801C0164B
:10034000D10621F08F01065F1F4FEFCFF39488E0B5
:10035000F81649F3F401F6CF15B8EFECF7E0319752
:10036000F1F700C00000982F92959F70906895B9A2
:10037000EFECF7E03197F1F700C00000905895B925
:10038000EFECF7E03197F1F700C000008F70806864
:1003900085B9EFECF7E03197F1F700C00000805825
:1003A00085B98FEC97E00197F1F700C00000089540
:1003B00084B18F6C84B983E3CFDF82E3CDDF8CE23D
:1003C000CBDF8CE0C9DF81E0C7CF089590E495B919
:1003D000EFECF7E03197F1F700C00000982F92950D
:1003E0009F70906C95B9EFECF7E03197F1F700C092
:1003F0000000905895B9EFECF7E03197F1F700C0A5
:1004000000008F70806C85B9EFECF7E03197F1F761
:1004100000C00000805885B98FEC97E00197F1F794
:1004200000C000000895EF92FF920F931F93CF93A7
:10043000DF938C017C01C0E0D0E005C0F701819121
:100440007F01C4DF2196F80101900020E9F7319780
:10045000E01BF10BCE17DF0788F3DF91CF911F91DF
:100460000F91FF90EF9008951F920F920FB60F9289
:1004700011240BB60F922F933F934F935F936F937B
:100480007F938F939F93AF93BF93EF93FF9383B12A
:100490008073803191F48CDF81E05EDF8AE391E04C
:1004A000C2DF80EC59DF89E491E0BDDF8FE493EC9B
:1004B0000197F1F700C0000027C083B1807380323C
:1004C00091F476DF81E048DF82E591E0ACDF80ECFB
:1004D00043DF8DE591E0A7DF8FE493EC0197F1F71F
:1004E00000C0000011C064DF81E036DF86E691E0E5
:1004F0009ADF80EC31DF81E791E095DF8FE493ECC8
:100500000197F1F700C00000FF91EF91BF91AF910B
:100510009F918F917F916F915F914F913F912F911B
:100520000F900BBE0F900FBE0F901F901895E5DD3A
:10053000D3DD53DEE6DEEE0FFF1F0024001C0BBEF2
:0C0540000790F691E02D0994F894FFCF8D
:10054C0091B191B191B19191B191B111311191B12F
:10055C00113191B11191B11131113111113191B19F
:10056C0091B111113191B11131111131113191B18F
:10057C001111311131113111140A5061756C204275
:10058C006F75796F756E657300506C61796572204B
:10059C0031004A616D6573204D616B2000506C61B8
:1005AC007965722032005042264A2773204C45440C
:1005BC000047616D652053746174696F6E005761FB
:1005CC006974696E6720466F7200436F6E74726F48
:1005DC006C6C65722E2E2E005042264A27732054C6
:1005EC006574726973005247422047616D6500570C
:1005FC00616974696E67206F6E2000506C6179655B
:10060C007220436172642E2E2E00506C61796572DB
:10061C00204F6E65200050757368204120746F2048
:10062C0053746172742000506C6179657220547738
:10063C006F2000506C61796572204F6E652053639A
:10064C006F7265003000506C617965722054776F61
:10065C002053636F726500507573682041203A20F7
:10066C005175697400507573682042203A205265A8
:06067C007374617274004A
:00000001FF
